:10000000405D0020B933000097570100E93300003C
:10001000E9330000E9330000E9330000000000008C
:10002000000000000000000000000000813100001E
:10003000E9330000000000002D310000715701007D
:100040007933000035F30000793300007933000084
:1000500079330000793300007933000079330000F0
:1000600079330000793300007933000079330000E0
:1000700079330000793300007933000079330000D0
:1000800079330000793300007933000079330000C0
:1000900079330000793300007933000079330000B0
:1000A00079330000793300007933000079330000A0
:1000B0007933000079330000793300007933000090
:1000C0007933000079330000793300007933000080
:1000D0007933000079330000793300007933000070
:1000E0007933000079330000793300007933000060
:1000F0007933000079330000793300007933000050
:1001000053B94AB9002908BF00281CBF4FF0FF317E
:100110004FF0FF3000F06EB9ADF1080C6DE904CE80
:1001200000F006F8DDF804E0DDE9022304B07047D2
:100130002DE9F047089D0E4604468C46002B40F002
:1001400081808A42174645D9B2FA82F24AB1C2F199
:10015000200106FA02F320FA01F1974041EA030C6C
:1001600094404FEA174E230CBCFBFEF6B9B20EFBCF
:1001700016CC43EA0C4306FB01F0984209D9FB1860
:1001800006F1FF3C80F01581984240F21281023E58
:100190003B441B1AA4B2B3FBFEF00EFB103344EA3F
:1001A000034400FB01F1A14209D93C1900F1FF33DE
:1001B00080F00181A14240F2FE8002383C44641A82
:1001C00040EA064000211DB1D4400023C5E90043A8
:1001D000BDE8F08702B9FFDEB2FA82F2002A4FD101
:1001E000CB1B4FEA174E1FFA87F80121B3FBFEFC29
:1001F000260C0EFB1C3346EA034608FB0CF3B34205
:1002000007D9BE190CF1FF3002D2B34200F2EB80E5
:100210008446F61AA3B2B6FBFEF00EFB106643EA64
:10022000064408FB00F8A04507D93C1900F1FF334C
:1002300002D2A04500F2D2801846A4EB080440EA9E
:100240000C40C0E78B4208D9002D00F0AF800021A0
:10025000C5E900060846BDE8F087B3FA83F1002936
:1002600049D1B34202D3824200F2BB80841A66EBCA
:10027000030301209C46002DAAD0C5E9004CA7E746
:10028000C2F120039740D8409140DE404FEA174E1C
:1002900008434FEA104CB6FBFEF11FFA87F80EFB3D
:1002A00011664CEA064601FB08F3B34204FA02F475
:1002B00009D9BE1901F1FF3C80F08E80B34240F2B3
:1002C0008B8002393E44F31A86B2B3FBFEF00EFB7C
:1002D000103346EA034600FB08F3B34207D9BE19C0
:1002E00000F1FF3C74D2B34272D902383E44F31A93
:1002F00040EA01417AE7C1F1200703FA01F422FA4A
:1003000007F31C4320FA07F906FA01F34FEA144CED
:10031000FE4049EA03094FEA1943B6FBFCFE1FFA07
:1003200084F80CFB1E6643EA06460EFB08FAB2454B
:1003300002FA01F200FA01F308D9A6190EF1FF3012
:1003400048D2B24546D9AEF1020E2644A6EB0A06C3
:100350001FFA89F9B6FBFCF00CFB106649EA064669
:1003600000FB08F8B04507D9A61900F1FF3C2DD2D3
:10037000B0452BD90238264440EA0E40A6EB0806C9
:10038000A0FB02894E45C446CE4618D315D075B39E
:10039000B3EB0C0266EB0E0606FA07F722FA01F33E
:1003A000CE401F43C5E90076002111E729462846C3
:1003B0000EE76646EDE6184601E74345E7D2B8EB9F
:1003C000020C69EB04040138A646E0E76046D3E777
:1003D00060468CE78646B9E7614674E702383C44DC
:1003E0002BE7084647E7ACF1020C3E4411E72946EB
:1003F000EEE600BF704700BF2DE9F041D0E90BC722
:10040000D0F828800CEB07043034A0450E46154682
:1004100018D81B4F18A3D3E90023ACFB0701FFF743
:100420006FFEA4EB080420F07F40306012A3D3E9F4
:100430000023A4FB0701FFF763FE20F07F40286044
:10044000BDE8F0810E4C0CA3D3E90023A8FB040106
:10045000FFF756FE20F07F4307F130003360A0FB2A
:10046000040105A3D3E90023FFF74AFE20F07F40F3
:100470002860BDE8F08100BF8D49FD1A070000002B
:1004800000CA9A3B000000002DE9F04FD64C94F8CA
:100490004E608FB006F00106002800F04F81B6BB19
:1004A00094F8392094F82D3094F8290004EB820256
:1004B00004EB830300F00300FF21D2F83C80D3F863
:1004C000309084F82A100EF063F994F84E00420739
:1004D00000F11981B9F1000F11D0C348494608F065
:1004E00069FB99F800305B0605D5062103F094FA04
:1004F000002800F04182BC48414608F05BFB99F8B7
:10050000003013F00E0F40F0D480636A23B10C2644
:1005100030460FB0BDE8F08F07F0B0FD82460028EE
:1005200000F03F8207F0B6FD8346002800F04B82C2
:1005300009F076F90546002800F04282806F4FF6F8
:10054000FF73AB8505F11C03002800F0268205F13E
:100550006C0205F168010B9303F06AFAB5F86420A8
:10056000A24895F83D1095F8327195F840C0C5F84D
:100570003CA1024042F4887295F87E0001F03F01F0
:1005800042F0010261F07F0127F0030E20F01F000E
:100590000027A5F8642085F83D10954A85F87E006F
:1005A0004FF01B1167F3000C7F20E9652A660621D6
:1005B000904A85F832E185F840C085F8C100A5F879
:1005C000C410C5F82821C5E9137785F83F706F86F8
:1005D0006F636F65A5F8C870A5F8CC70C5F80C718D
:1005E000A5F81071A5F82471C5F82C71A5F8307123
:1005F00085F83B71AF67A5F87C70A5F85C7195F83C
:100600007EC195F8A60195F85E11B5F8DC20A5F835
:100610007C7167F3041C21F0070102F0FC0267F310
:10062000C30085F87EC185F85E11A5F8DC20C5F809
:10063000E470A5F8E87085F8EA70A5F8A471A5F84B
:10064000B07185F8A60109F005FCA5F8D60009F0FF
:1006500007FCD5F8B411684AA5F8D8000A40C5F8D7
:10066000B42109F003FC95F8B82160F3020285F883
:10067000B82109F001FCC4E911AB0B9B636295F84A
:10068000B82195F82030C5F8CC7160F3C50267F346
:100690000003C5E97177C5E96F77C5E90577ED61B5
:1006A00085F8B82185F820300FF0C0F9002840F017
:1006B000658194F828300121C3F342030DA88DF819
:1006C000343003F02DFB90B399F8003003F00F03A2
:1006D000022B00F1FF3200F09780012B00F05281D5
:1006E00098F801001030C000002B40F03D8199F8CF
:1006F00001301033DB0003F54D71084403F59A73A4
:1007000003FB02008BE0C0F3C000324604F14F014E
:100710000EF0C0F9FF2884F82A003FF4DBAE304623
:100720000EF07CF8B9F1000F7FF4D7AEE7E6636A0C
:10073000002B3FF4ECAE08F00DF8E8E6002E3FF495
:10074000E6AE204607F038FD844204D02B484FF433
:10075000F36101F0D9FF94F82830D9070DAD0ED51B
:1007600002220D920321264B00950122002004F065
:100770000FFE294607F004FD002840F029810222DF
:1007800003211F4B009500200D9204F001FE294625
:1007900007F0F6FC002840F006811A4807F048FDF3
:1007A000002840F0F480104807F012FD844204D085
:1007B000124840F2BA7101F0A7FF636A0BB107F06B
:1007C000C9FF94F84E3000206FF3000384F84E30D8
:1007D00008F0ECFA0646002800F093800026304628
:1007E0000FB0BDE8F08F00BF981B002080F8FFFF1E
:1007F00048014801FF4901000000FFF6DC6B0100E1
:1008000011720000B41B002099F801301033DB0096
:1008100000FB03F000F5AA70642303FB020094F8C8
:100820002070754AE4610025312365F30007A0FBC1
:100830000201236084F820706DA3D3E90023C4E98A
:100840000555C4E90155FFF75BFCB4F84C80E06046
:1008500004F042FE0746B8F1000F08D199F80050A5
:1008600005F00F05A5F10105B5FA85F56D0994F8B8
:100870002820E36865F3000212F0010584F82820BF
:1008800042D0DFF890915D490493002002250DF1DC
:10089000300801930591CDE907980321CDE90200C5
:1008A00006942A4600903B460C9504F0E9FC41462C
:1008B00007F066FC00287FF43AAF514905914AF2EF
:1008C000D8320092CDE90798CDE90300CDE90100C7
:1008D00006943B46012203210C9504F0D1FC4146CD
:1008E00007F04EFC00287FF422AF94F84E3043F01E
:1008F000010384F84E3008F059FA00287FF46EAFF7
:1009000001200DF023FF03E63E483F4ADFF804E1F3
:10091000DFF8E8C00694A8FB00014FF0910909FB3D
:10092000081103F24718C2F800804FF0020904933F
:1009300009920DF130082EA3D3E900234FF6FF7A78
:10094000CDE907E80295CDF83090CDF814C0CDF888
:100950000CA0FFF7D5FB4A46CDE900503B462846A0
:10096000032104F037FCBAE7062B3FF4C0AE4FF486
:10097000DA734FF41B70C3E61226C9E507F0EAFEEE
:100980000326C5E54FF4F2734FF47F70B8E61F48B5
:1009900040F2B77101F0B8FE05E705F17000A867F5
:1009A000D5E50726B4E51A4807F012FC84423FF467
:1009B000AEAD164840F2B17101F0A6FE0C26A7E5D7
:1009C000584607F06DFB504607F05EFB07269FE593
:1009D0000F4807F0FDFB84423FF499AD0B4840F20D
:1009E000A37101F091FE0C2692E500BFAFF30080E9
:1009F0008D49FD1A0700000000CA9A3B6586000079
:100A000005860000002AE784F01B0020DC6B010053
:100A1000981B002011720000F8B5194E9DF818407F
:100A200096F8445015F0010720D196F82EC0DFF853
:100A300054E0F187E40004F018040CF0670C44EA79
:100A4000C01463F34205A2FB0E0144EA0C04912397
:100A500003FB021186F8445007A3D3E9002386F86C
:100A60002E40FFF74DFB30643846F8BD0C27384662
:100A7000F8BD00BFAFF300808D49FD1A07000000EC
:100A8000141C0020002AE784F8B59DF81840104E89
:100A90000546E400807C6A8404F01804A3FB066722
:100AA00000F06700912244EAC111014302FB037781
:100AB000A97405A3D3E9002330463946FFF720FB8C
:100AC0006862F8BDAFF300808D49FD1A0700000091
:100AD000002AE784000000002DE9F04F90F82E3046
:100AE000044600F1310190F8440003F0F903C0F32B
:100AF000400060F386138DB084F82E3004F0F2FCD1
:100B0000E68F94F820304E48E4610025A6FB0001F2
:100B100065F30003912202FB0611C4E9055584F830
:100B2000203045A3D3E90023FFF7EAFA236C656080
:100B300006460933A6F1310293424FF03101A56018
:100B400028BF2564216034BFE360E26004F0C4FC88
:100B5000656A80460DF12C09002D4DD0CDF820900E
:100B6000384DB4F83EA038493548E268DFF8E4C0B3
:100B70000492651BA1FB0535AAFB0001912303FB31
:100B80000A11324B05934FF0000A2BA3D3E900233F
:100B90000227CDF81CC006940B97CDF80CA0FFF7E8
:100BA000AFFA104619464FF47A720023FFF7A8FAFD
:100BB0002D090435EDB22A46029043460321CDF8B3
:100BC00000A05046019604F05BFB494607F0D8FAB6
:100BD000054668B994F8443043F0010384F8443082
:100BE00007F040FF0446F8B128460DB0BDE8F08F8D
:100BF0000C200DB0BDE8F08FE1680A954B460AAABB
:100C000003200B9500F074FF0B990029A6D0104823
:100C100009A3D3E90023A1FB0001FFF771FA0A9BA6
:100C200020F07F48984499E738460DF08FFD204624
:100C30000DB0BDE8F08F00BF8D49FD1A0700000020
:100C4000002AE784141C0020398EE338158C00003C
:100C500000CA9A3B117200002DE9F04FCC4B1D6881
:100C60008BB0044688461746002D00F08A81E58E39
:100C7000628E94F812611544454416F00701ADB236
:100C80000AD04E1E042E00F20D83DFE816F0B401E8
:100C90001A02AF013E011D02B4F8EC90A5EB090267
:100CA0001FFA82FA120400F1678194F93D20002AAC
:100CB000C0F2628294F8E82084F8E92094F87C116C
:100CC00094F87D2194F8100184F811018A420AD029
:100CD00094F87E2102F00702052A04D1002284F84C
:100CE0007D11A4F8CC201A68D4F80C61A24204BF8C
:100CF00000221A60002E00F072813068002800F097
:100D00006E81B4F81431B4F82EC04268C4F80C21D6
:100D10006345B4F81621B4F8181100F03582B4F820
:100D20002CC0A6F806C04FF0150E4FF0000CF38350
:100D30003284718486F804E086F81CC0314607F0DE
:100D4000B5F907F0BDF92368002B09DAD4E90112DF
:100D500023F000438A422CBFBF187F182360FF1A7C
:100D6000E08DB4F8146110FB0AF080B2B0FBF6F32A
:100D700016FB03F292B290421FFA83FB80F01E81B1
:100D8000121A40F2E243834803FB02F2A2FB000185
:100D90007DA3D3E90023FFF7B3F920F07F40074498
:100DA000618E94F93D30A9EB05055D448844A84463
:100DB00040F2E249002BA4F8328009FB06F5C0F2AC
:100DC0000782D4F81C0173496FA3D3E90023A0FB69
:100DD0000101FFF795F920F07F4909F10109AA46C1
:100DE000B4F81821B4F816116B4BE68542F2107076
:100DF00000FB0252694821862B442844B3FBF5F3DB
:100E0000013AB2FBF5F2B0FBF5F5A4F8C62098B2B2
:100E10008A1D9042A4F8D200A4F8CA5002DD401AFC
:100E2000063880B294F81231A4F8CE001B0744BFF4
:100E30000023A4F8C8300221012011F055FB002244
:100E400002210546012002F041FE55494FF4EA72A5
:100E5000204602F0CDFD461DF6B2524B00943246BC
:100E60000121002004F094FA30F0020304D04E482F
:100E700040F6252101F048FC464BAAFB03AB504647
:100E800041A3D3E900235946FFF73AF9474A20F036
:100E90007F48A8FB02230721BAEB020001FB0833BD
:100EA0006BEB03014FF47A720023FFF729F994F9F1
:100EB0003DC03F4A3F490346E068049011EA2C01D7
:100EC00038BF11463C4802934FF6FE7C3B460591E5
:100ED0000790CDF8048008940694CDF8009032462F
:100EE000CDF80CC00121002004F0CAF930F0020353
:100EF00004D02D4840F63F2101F006FC002D40F0C3
:100F00005E8128460BB0BDE8F08F238E94F8120165
:100F1000D4F8F020D4F8BC111D440635ADB26FF3FF
:100F20000200A4F8EC50A2F10903158184F8120123
:100F3000002900F00E8194F85E01850700F1098117
:100F400094F8B701C00700F10481D4F8C8018142C8
:100F500004BF0868C4F8C801D4F8C001002840F0F4
:100F6000FD80086842F8090C0B6052F8091CC4E9BE
:100F7000703309B9C4F8CC316FF043000BB0BDE851
:100F8000F08F186073E600BF8D49FD1A070000005E
:100F9000B039002000CA9A3B7FC3C901FF596202E1
:100FA000701C0020559100005C6C01008D49FD1AF9
:100FB000F9D800003DD700002591000006FB13037F
:100FC00040F2E242BE489BB202FB03F3A3FB0001E6
:100FD000B9A3D3E90023FFF793F83F1AE0E6B94835
:100FE00040F67A1101F090FB30688AE66FF00F004E
:100FF0000BB0BDE8F08FDFF8E082012007F066F863
:101000000646002800F03581AF4802F0BBFC0546DB
:10101000002800F02E8107F077F83368D4F80C210F
:101020005A600C23C4F80C616B71D4F81C312A7916
:10103000A64994F8120142F00302A1FB0313002118
:101040002A71E97194F820112972C3F38F23216862
:10105000A5F80930B4F81431A5F80B300322B4F820
:101060001631A5F80D3062F30200B4F81831A5F876
:101070000F300029C4F8F47084F812010ADAD4E9B8
:10108000013221F000419A422CBFBA18FA18511AC5
:10109000C4F8F4108E4B09350122C4F8F050104604
:1010A0000221C3F80C809C6002F044FD00283FF44C
:1010B00063AF844840F6CA0101F026FB6FF043009D
:1010C00020E7DFF8188298E794F8E800D4F8F010E9
:1010D00084F8E900D4F8BC2194F8100184F81101D7
:1010E000002594F87C0184F87D011D60A1F10900C0
:1010F000FAB194F85E319F071BD494F8B731DE073C
:1011000017D4D4F8C8319A4204BF1368C4F8C83160
:10111000D4F8C03193B9136841F8093C106051F814
:10112000092CC4E97000002A00F0B7806FF0470076
:10113000E8E6D4F8C031002B00F0A880D4F8C43120
:101140001A6841F8092C186051F8092CC4F8C40138
:10115000E9E7D4F8C001002800F08E80D4F8C4116B
:10116000086842F8090C0B6052F8091CC4F8C43135
:1011700000297FF401AFFDE694F8DD20002A3FF45A
:1011800099AD84F8DD1099E5B4F830C094457FF44A
:10119000C6AD40F2E24C0CFB03FB42F2107CB4F80B
:1011A000C6E00CFB01BC0CF1FF3CBCFBFBFC1FFAD6
:1011B0008CFCE6457FF4B3AD01233371BEE501221B
:1011C0001046022102F082FC00200BB0BDE8F08F37
:1011D000E26C636CDFF8E88003FB1A23E3640EF033
:1011E00091FC064694F8DC00C0F382000EF08CFC03
:1011F000064405FB06F6374BE26C94F8201106F521
:10120000742606F23F26A3FB0636B60C06FB0BF04F
:101210006B080244963B9A4209FB01FC28BF1A4620
:101220004FF0000EC4E91232666423A3D3E9002311
:10123000C4F854C0C4F8E4E0A0FB0801FEF760FF66
:10124000224B8446D4F81C01A3FB0030800A09FB22
:1012500000F019A3D3E90023A0FB0801A7EB0C07BA
:10126000FEF74EFFA5EB060A20F07F49B4F81461A3
:10127000B6E56FF0360045E642F8091CC4E96F3365
:10128000C4F8C43100297FF477AE73E641F8092C25
:10129000C4E96F00C4F8C40145E7C4F8CC016FF09D
:1012A00047002FE6074840F6261101F02DFA4FF0CF
:1012B0000008A2E6AFF300808D49FD1A0700000088
:1012C00000CA9A3B5C6C0100C83A00205917B7D19C
:1012D0002005002083DE1B43A5E10000A11C0000C7
:1012E0000F2800F2A0802DE9F04D024604460E467C
:1012F0005F484FF4EA7102F077FB838DA342054605
:1013000056D15C4AD778507891787B1CDBB29842F2
:1013100008BF0023994200F08F80104610F8041B8C
:1013200011FB07F1471800F0878044527E60297C4A
:10133000D37001F0FF00002978D04F4F3B68062B97
:101340003AD8DFF84C814D4B0022012103209D60EB
:1013500002F0F0FB95F93D30002B71DB01F080FECF
:101360004749484B0C68DFF82CC10FF2FC0BDBE956
:1013700000AB041BA4FB0345E20BEB0B42EA454226
:101380009B4508BF92454AD33C68DCF80010013405
:1013900075793D480D44A5FB00012944CCF8005067
:1013A000FEF7AEFE3C60C8F800000020BDE8F08DFE
:1013B0006FF01500BDE8F08D95F87E3095F864006B
:1013C000DFF8CC803149D8F80020B1FBF2F2C3F34A
:1013D00000139B0000F0070E10F00400DBB234D1C4
:1013E0000EF124010EF1090C4FEACC0C4FEA6E0EFF
:1013F0000B44DB002CFA0EF123FA0EF301F5967C78
:1014000063449A4208D996314900C3EB420008442C
:101410000138B0FBF1F0C0B20FF05EFE93E7086058
:1014200001240021B4E76FF0150070470FF054FE5F
:10143000114FDFF85C808DE76FF03600BDE8F08D6E
:10144000214628460CF0D4F988E79B0103F68C531B
:101450009A4201D80020DFE7C3EB420040F2CC61A2
:10146000D5E700BFAFF3008000CA9A3B0000000040
:10147000701C0020BC04002018450020000500203E
:10148000B439002000CA9A3B0050D6DC00E6DF0CDD
:10149000204500201C4500202DE9F04F9C4695B0CA
:1014A0005CF80C6B1D46136886460C4660462E3170
:1014B000174605F1080A0322D3F80090CDF828E07A
:1014C00005F11C0814F094F904F12A010422504695
:1014D00014F08EF904F13A010522404614F088F91F
:1014E0004046052102F01CFC95F8213000F03F0039
:1014F00060F30503012885F821300AD994F83F30BC
:1015000003F01F02053AC3F304010B2A85F82210E9
:1015100002D915B0BDE8F08F3A6896F8DC100020CB
:101520009060B4F83480A5F8128094F8362094F8CE
:1015300037005B0942EA002263F38401AA82638ECA
:1015400086F8DC100C930EF0DDFA034696F8DC000A
:101550000B93C0F382000EF0D7FA0B9BDFF810C399
:1015600094F83110AA8A40F2E24B0BFB08F81844B9
:1015700008FB00F000F5742000F23F20ACFB00C037
:101580004FEA580C800C0BFB01F1ACF1960CA862F1
:10159000C5F82CC0E963218FAD4BADF8361042F28F
:1015A000107C0CFB0181AB48434402F1060C01396D
:1015B000B3FBF8F3B1FBF8F1A6F8C61099B2614598
:1015C0004044A6F8D210B0FBF8F0A6F8CA0002DD3D
:1015D000891A063989B2A6F8CE100422514606F1BE
:1015E000E00014F005F9237F04F11E0A5146C3F30D
:1015F0008013062212A88DF8403014F0F9F8237FEA
:101600004FF48072A28399F82A0097F812B0C3F3BE
:1016100040128DF83C200B920DF02EFD0146062263
:1016200004F12B00002940F0E28014F00CF904F1E1
:101630002503BBF1FF0F0E9304F11F0300F0E080C0
:101640001A46514658460CF0E5FFA27F0E9802322A
:10165000A27712A9062214F0CBF896F8DC30698A3A
:10166000AA8AA286C3F3820384F83830BDF83630E4
:10167000E3866186304608F0DFF821462882E08064
:101680007C680A9806F012FD2B8AE38018232371E8
:101690000B9B2068002B00F0AF8095F809E02B7AB7
:1016A00095F80BC0A97A95F8212041EA0C2143EA6C
:1016B0000E234B4042F0400201216B8485F821202B
:1016C0002177214606F0F2FC06F0FAFC95F8490075
:1016D000012100F007000EF015F95F4A0024824650
:1016E000312300F25240A0FB02013360C6E90144FD
:1016F00055A3D3E90023FEF703FDFA680C99AB6A02
:1017000020F07F4040F2E24505FB0125F0602246D3
:1017100002210120A8EB030802F0D8F9484607F09F
:1017200087F9821C4D4BCDF80090D2B220460121A2
:1017300003F02EFE05F286350128A5EB0A0577D0C9
:1017400099F82830DB076BD4304608F075F8DFF8DD
:1017500008B1A8FB0B893CA3D3E900230446494602
:101760004046FEF7CDFC3E4A069620F07F4AAAFB93
:101770000223072101FB0A334FF4B671BF680891B9
:101780003849079138490591B8EB020069EB03012C
:10179000F368049300264FF47A7200230396FEF751
:1017A000AFFC29A3D3E900238446A5FB0B01CDE9B7
:1017B00001ACFEF7A5FC053420F07F40E4B2313FD8
:1017C0003B46009022463046012103F059FD30F09F
:1017D000020304D0254840F26D1100F095FF01226C
:1017E0001046022102F072F915B0BDE8F08F04F145
:1017F000240113F0FDFF1AE79DF83C30237760E7E2
:101800000E9811930622002114F01DF89DF8403027
:10181000A377119B12A91846062213F0E9FF1CE7D3
:101820000023012200931846114603F0B1FD8BE717
:1018300006F0DAFC814583D00C4840F2FD1100F03F
:1018400063FF7DE7AFF300808D49FD1A07000000BC
:101850007FC3C901FF59620200CA9A3BC9D7000081
:101860008D49FD1A29D700003DD70000A86C010062
:1018700083DE1B43000000002DE9F04F0E7F17466A
:10188000126891B00C464FF0000A1D46C2F808A03D
:10189000C6F3C013D2F800908DF8343024310622FC
:1018A00080460EA82E6813F0A3FF237FA4F81CA087
:1018B000797C97F812A0C3F3401211F001018DF862
:1018C00030200B9204F12B004FF0060200F0E7806D
:1018D00004F11E0113F08CFFBAF1FF0F04F1250390
:1018E00004F11F0B00F0E5805A46504604F11E013A
:1018F0000D930CF08FFEA27F0D9B0232A2770EA9F2
:101900001846062213F074FF6B8AAA8A6386B9F818
:101910002C30E386A2860EF0F3F884F838003046C7
:1019200007F08AFF034628822146E38040467C6810
:1019300006F0BCFB2B8AE380182323710B9B2068E5
:10194000002B00F0A88095F809E02B7A95F80BC0E1
:10195000A97A95F8212041EA0C2143EA0E234B4055
:1019600042F0400201216B8485F821202177214635
:1019700006F09CFB06F0A4FB95F84800DFF868A190
:10198000C0F3C00100F007000DF0BAFF0024834649
:10199000312300F252403360C6E901444CA3D3E93D
:1019A0000023A0FB0A01FEF7ABFBB5F812C0FB68F1
:1019B00020F07F40F06022460221012040F2E24800
:1019C00008FB0CF8A3F5877502F080F8484607F08D
:1019D000D3F9021DD2B2404B00920121204603F000
:1019E000D7FC2346032201210094204603F0D0FCBB
:1019F000304607F021FF069640F2CF23BF68374AF2
:101A00000893374B07920593F3680493A8FB0A8960
:101A100000F1050C2EA3D3E90023404649465FFAA6
:101A20008CF60394FEF76CFB104619464FF47A725D
:101A30000023FEF765FB26A3D3E90023844649462D
:101A40004046CDF808C0FEF75BFBA5EB0B058446CE
:101A50001FA3D3E90023A5FB0A01CDF804C0FEF7BC
:101A60004FFB313F20F07F403B46009032462046FE
:101A7000012103F005FC30F0020304D019484FF4B3
:101A8000347100F041FE01221046022102F01EF8DE
:101A900011B0BDE8F08F9DF83030237767E713F081
:101AA000D2FEBAF1FF0F04F1250304F11F0B7FF4FE
:101AB0001BAF18460622002113F0C5FE9DF83430F6
:101AC000A3770EA95846062213F092FE1CE700BF2A
:101AD0008D49FD1A07000000E1D80000E5D800009C
:101AE000F9D80000EC6C010000CA9A3B000000002D
:101AF0002DE9F04F8FB01C4609934FF0FF0A0023E9
:101B00000431DFF8F890DFF8F8B02360049304465E
:101B1000089115460C9305938DF82FA00DF134080C
:101B20000CAF0226CDE9019800972B460DF12F024C
:101B3000214600200D9603F071FC022830D00D9B49
:101B4000002B33D19DF82F00FF2837D00538C3B2C2
:101B50000F2BE7D880B207F077FE0028E2D090F98B
:101B60003D30002BDEDBC3680C9ABAF1FF0F03F1A6
:101B700004030CD0059907931046069203F0AEFCBF
:101B8000049B089A99188842DDE9062319D8CDE903
:101B900004329DF82FA0C5E72146002003F084FC05
:101BA0000D9B022BF8D00D9B002BCBD0584650211B
:101BB00000F0AAFD9DF82F00FF28C7D1BAF1FF0F52
:101BC00010D0DDE904320C481344A3FB00010722C6
:101BD00002FB031106A3D3E90023FEF791FA099B48
:101BE000803018600FB0BDE8F08F00BFAFF3008009
:101BF00000CA9A3B000000008D49FD1A01DF000079
:101C0000306D01000000000070B51C4682B0154622
:101C1000064601AA02200195FFF76AFF23680BB36D
:101C20000198431B1B021FD4294603F057FC1A4B93
:101C30000246A0FB0301072303FB021114A3D3E90F
:101C40000023FEF75DFA226802442260002A09DBC5
:101C500040F2E24101FB06F0904203D2121A904298
:101C6000FCD3226002B070BD0146284603F036FC6A
:101C7000094B0246A0FB0301072303FB021104A347
:101C8000D3E90023FEF73CFA2268121A2260DDE74E
:101C900000CA9A3B000000008D49FD1A00000000B8
:101CA0002DE9F041B0F88C2188B0054640F2E243BE
:101CB000494805AE03FB02F30027A3FB00010624FD
:101CC00043A3D3E9002377600597B7608DF80F40F1
:101CD000FEF716FA0DF10F020196B5F88231009267
:101CE00004460121284604AA04940CF00BF99DF83F
:101CF0000FC00CF1FF34E4B20DF11603394603EBCB
:101D000044042F4605F10C0E4FF6FF7097F88D3105
:101D100097F88C2142EA03220FFA82F8BCF1000FF7
:101D200009D03346824203D0198891421ED0012146
:101D300002339C42F6D10237BE45E7D1D5F8F030E8
:101D400051BBBDF8142040F2E24101FB02F1100A40
:101D5000C5F81C111A70587095F81231042262F3FC
:101D6000020385F8123108B0BDE8F081D5F8F01013
:101D700040F2E24303FB02F3120AC5F81C314A7039
:101D800081F8008095F81231042262F3020385F88D
:101D9000123108B0BDE8F081032203F8042C13F8D7
:101DA000052C95F81211052042F0030260F30201A0
:101DB00003F8052C11240F20202203F8024C03F80D
:101DC000010C1A7085F8121108B0BDE8F08100BF4F
:101DD0008D49FD1A0700000000CA9A3B0000000070
:101DE00038B504460EF020FCA27CC2F34103013357
:101DF00003F00303032B34D063F34202A27403F114
:101E000025000DF047FDA3680BB3E368FBB110F0AC
:101E1000CBF9054603F060FBC11C002010F06CF903
:101E200010F016FA10F0C0F9294603F057FB124BD8
:101E30000246A0FB0301072303FB02110CA3D3E915
:101E40000023FEF75DF9E3681B1AE36038BD03F079
:101E500043FBC11C002010F04FF9BDE8384010F0E2
:101E6000F7B96FF34202A2742520CAE7AFF30080EE
:101E700000CA9A3B000000008D49FD1A00000000D6
:101E80002DE9F04F83B004460FF0F4FF10F0FF0F80
:101E90000AD10DF04BFDBC4821460FF07FFE03B088
:101EA000BDE8F04F0FF0B8BF10F004F8C7B210F063
:101EB0008BF85FFA80F910F091F8804610F0ECFA98
:101EC000C6B210F0CDFA834610F046F882460DF007
:101ED0002DFD012006F01EFA0546002800F0A38023
:101EE000B9F1000F40F0A880002E40F0B1804FF013
:101EF000FF08002FCFD0A37C1A075FFA8AF740F1C2
:101F0000B080B9F1000F00F0CD81A368002B00F084
:101F1000AE80287F10F00F0340F0CB816B7F252B24
:101F200000F2F180042006F0F5F90028B3D010F09B
:101F300097F9636A814643B9628C40F2712303FBCF
:101F400002F3B0FBF3F203FB120923688F48DB684E
:101F50000722A3FB000102FB031189A3D3E900239D
:101F6000FEF7CEF8A0F242334B4594D30FF0CEFFEC
:101F7000D4F808A00FF0ACFF2A7F0178C2F38012DA
:101F8000D20101F0500142F025020A4322210270E1
:101F90004170834640460DF07DF8E27C0090D30707
:101FA00001460BF1020040F1BA81002900F0B7812F
:101FB0009BF8002042F040028BF80020062213F02C
:101FC00017FC062205F11E010BF1080013F010FCAE
:101FD00004220AF108010BF10E0013F009FC0322A0
:101FE0000AF10C010BF1120013F002FC0122BAF805
:101FF00012308BF81520019310F032F9D4F80C90C0
:1020000000F5DB62B9F1000F00F0AB81019B40F2FB
:10201000E24101FB03F1B9F1000F02DB4A4540F256
:10202000B9808944F7E75A4840F2BB1100F06CFBD5
:10203000B9F1000F3FF458AFA07C5FFA88F1C0F30C
:10204000C0000DF045F88046002F3FF424AF52E762
:102050005FFA8BF00DF07CF88046002F3FF41BAF49
:1020600049E7B9F1000F72D1A268002A7DD1287F1B
:1020700010F00F0320D16B7F252B3FF60CAF94F9A6
:102080001220002A03DAA268002A00F08181252BA1
:1020900098BF4FF0000936D8002B3FF4FCAEA36880
:1020A000002B7FF4F8AE002E14BF4146FF214A46B4
:1020B00038460EF0B9FBEEE6062B00F02981022B24
:1020C00000F02B81012B1ED16B7F0C2B7FF4E3AE34
:1020D00005F1240AC009514642460DF001F9814636
:1020E00088BBA37C287FC3F38012B2EBD01F00F023
:1020F000AF81C3F3C1039A0704D595F91C30002BB7
:10210000C0F29B81287F00F00F0004287FF4C3AE4B
:102110006B7F252B3FF6BFAEA37CDB077FF5BBAE05
:102120000FF0D6FE2B7F0278C3F38013B3EBD21FE0
:102130007FF4B1AE0830062205F11E0113F048FB12
:1021400000287FF4A8AE6B7F4FF00009A4E741465A
:1021500030460DF05FF8002800F09F80A368002B48
:1021600085D0A37C1A073FF5D4AEB8F1FF0F00F07D
:10217000E580237DA3EB0803B3FA83F35B09C5E68F
:1021800000CA9A3B00000000A10601008D49FD1A1B
:10219000606E0100C4489BF81510A9EB0202A0FB79
:1021A0000232C2F38F220131ABF816208BF81510E2
:1021B000BAF81200BAF81410228AABF81C20ABF857
:1021C0001800ABF81A1005220AF11C010BF11E00D1
:1021D00013F00EFB9AF822109BF8232061F30402FF
:1021E0008BF823200DF08CFC9BF8232060F3471222
:1021F0008BF8232058460FF0E1FD0FF031FE002848
:1022000040F0C080A94821460FF0C8FC002F40F0E4
:10221000B480227942F00101D707217100F1A78033
:1022200006F096F81322074602714FF6FF722D7FD3
:10223000C280594624221C3013F0DAFA3B7FBC607E
:10224000C5F3401565F345133B770FF0ADFF002153
:10225000386108460FF0C2FD002E08BF4FF0FF089E
:1022600087F81A80E27CA9EB000012F00102786185
:1022700003D0009B1A1E18BF01227B7E62F300036D
:102280007B7606F065F83946F860386806F078F82D
:1022900003B0BDE8F04F06F083B8A37C18077FF5C4
:1022A000FAAD32E640460CF085FF00287FF456AFC9
:1022B000F1E5012B7FF400AF6B7F0C2B7FF4EBADCE
:1022C00005F12409C009494642460DF009F80028E5
:1022D0007FF428AEE37CD80700F1A880A37C287F98
:1022E000C3F38012B2EBD01F00F0CA80C3F3C10366
:1022F0009A077FF5BCAE95F91C30002BBFF6B7AE40
:1023000095F8293003F0C003402B7FF4B0AE09E606
:102310006B7F252B3FF6F7AEB1E66B7FB7E6A27C6D
:102320009BF80010C2F3801262F386118BF8001044
:10233000062204F1150113F05BFA42E6287FC3F38D
:102340004013C0F3801293427FF492AE062205F14F
:102350001E0104F11B0013F03BFAB0FA80F35B0995
:10236000D4E58BF816908BF81790914620E75048EB
:1023700040F29E3100F0C8F952E70FF0DFFD8AF815
:10238000A50046E74A484FF45E7100F0BDF939E711
:1023900096200FF039FE00200FF09EFD002E14BF96
:1023A0004146FF21384600220EF03EFA00287FF415
:1023B00072AD0FF08DFD2B7F0278C3F38013DB012C
:1023C000064602F0700243F0030313430C223370FD
:1023D000404672700CF05EFEE37C0146D80740D5A3
:1023E00000293ED03378304643F0400300F8023BEA
:1023F000062213F0FDF905F11E01062206F1080080
:1024000013F0F6F930460FF0D9FC0FF029FD002843
:1024100041D10FF01DFFA37C264843F00103214664
:10242000A37403B0BDE8F04F0FF0B8BB40460CF00A
:1024300031FE00287FF41BAE50E795F8293003F0F9
:10244000C003402B7FF45EAE6B7F4FF0010923E6A3
:102450005146062204F1150013F0BAF908B3A37C23
:1024600047E6A37C3278C3F38013304663F38612C9
:1024700000F8022B04F11501062213F0B9F9BAE7AE
:102480004946062204F1150013F0A2F900283FF492
:1024900049ADA37C2AE7064840F2F93100F034F94F
:1024A000B7E76B7FF8E500BF5917B7D1F105010019
:1024B000606E0100B506010038B5094D4FF0FF32DE
:1024C0004FF0FF33284613F093FA044601F018FA50
:1024D00010B1204610F046FA12F086F8EEE700BF81
:1024E0001407002010B50F480F4C11F03BFC206082
:1024F00098B112F0C2FC206812F0B4FC2068836826
:1025000023B19B6C13B10949002298472068836866
:102510009B6A2BB19847002010BD6FF01500FBE7B8
:102520001846F9E7E0730100580B00203125000040
:102530002DE9F04F6B4D286883685B6B8DB043BB12
:10254000286812F094FC286812F091FC68B1664E7D
:10255000336834460BBB65480022002313F048FA69
:102560003060D0B9286812F07DFC286883685B6B06
:10257000002B60D0984700285DD0DFF884A15C4E26
:1025800057469AF80030032B55D8DFE803F01D308A
:10259000799B98470028D6D1D2E7286883685B6981
:1025A00083B121688A898968984701462068083084
:1025B00013F061FA20688689002ED6D110F0D2F986
:1025C0002660D2E71946F1E74A4C286801222146E5
:1025D00012F042FC78B323785A1E012AD1D8012B7D
:1025E0000CBF03230423336001233B70C9E7DFF8EA
:1025F0000491326899F80030DFF8FC802868012BDC
:102600000CBF03210421891A414412F025FC3368D0
:102610001B1A04463360002B50D10123CDE90093EF
:1026200000220023062001F00FF9DFF8D8B0CBF824
:10263000000018B938700DB0BDE8F08F99F800307F
:10264000CBB998F802203260012B0CBF0322042280
:102650002949083013F0FDF9DBF80000083013F0C9
:102660001AFA3368984209D2DBF8000010F07AF9C0
:1026700003233B7022E0B8F80220E4E70223F8E7E6
:10268000DFF880803268D8F80030286899899B6824
:10269000194412F0E1FBD8F800108B8903448B81B8
:1026A0003368A3EB00080446C6F80080B8F1000FB9
:1026B00004D1124813F0BAF987F80080002C7FF497
:1026C00060AFB8E732682868212A28BF212203A911
:1026D00012F0C2FB33681B1A04463360002BEDD1A5
:1026E000C7E700BF580B0020540B00202C07002028
:1026F0005C0B0020BB4C0020B64C002014070020CF
:10270000BA4C0020500B0020F8B505460F464FF09C
:102710002002EFF3118382F31188BFF36F8F234CF4
:10272000206812F0AAFB206812F09CFB002D36D125
:102730002E462068042112F0A5FB2068FF2112F02C
:10274000A1FBB11D2068C9B212F09CFB2068AA2130
:1027500012F098FB36B1013D15F8011F206809BB46
:1027600012F090FB2068F9B212F08CFB2068C7F3DE
:10277000072112F087FB2068C7F3074112F082FBA4
:102780002068390E12F07EFBFEE701332F2A08BFC6
:102790001E46EA5C002AF8D135449E1BC9E7002694
:1027A0003346F6E712F06EFBD6E700BF580B002069
:1027B00070B5184888B001F0A9F800220023CDE9CF
:1027C000062300236FF00802CDE90323CDE901338E
:1027D00000931149114B12484FF4806212F014F823
:1027E00010490F480B4D104E104C13F0C2FD4FF026
:1027F000FF324FF0FF33284613F0FAF80146304617
:1028000013F014F920688368DB69002BEFD0984738
:10281000EDE700BFFC06002020510020B924000095
:10282000C0070020E77301002C070020580B002090
:102830002DE9F84FB0F8189019F0080804469346AF
:102840000DD001290CBF49F0100949F02009A0F86A
:1028500018908BF31188BFF36F8FBDE8F88F09F0E4
:102860000709022907D1204612F03CFB0028F0D0CE
:102870000128238B50D16769218B002F15DA256839
:1028800021F00701C4E9008841F0010121830026FD
:10289000218B01F0070ACA4502D0A368002B5CD146
:1028A0000DB9002E74D0002358E001F007035A1F21
:1028B000012A20D821F00701062B256889B2C4E936
:1028C00000880CD1002D2B4638BF00232BB1628B22
:1028D0001B6801326283002BF8D141F00201218391
:1028E000204612F0FFFA06460028D1D0238B43F091
:1028F00020032383CBE7042B0CD121F0070189B2FD
:102900002183204612F0EEFA05460028BFD041F0A0
:10291000200121830025BAE7032809D1226923F089
:102920000703166843F00603238300252F46AFE70D
:10293000042806D1226923F00703566843F00403F4
:10294000F2E7052806D1226923F00703966843F0D1
:102950000503E9E700252E46E8E7012341F00801D9
:1029600021838BF31188BFF36F8F03BB002D33D10D
:1029700016B121492046B0474FF02003EFF3118BE9
:1029800083F31188BFF36F8F238B23F00803238316
:10299000238BDA0628D523F0100323830121B4F812
:1029A000189009F0070900297FF45BAF51E7A1688F
:1029B0000029DBD00B68D1F804B0002B38BF00230E
:1029C000994652463B462046D847B9F1000FCDD034
:1029D000D9F800304946EEE729463B4652462046A4
:1029E0002D6812F09BFAC1E713F020011EBF23F0FF
:1029F000200323830221D2E7494F0100F8B50546A1
:102A00004FF02003EFF3118683F31188BFF36F8F2C
:102A10000B4B1C68002C38BF00245CB1094FD4E973
:102A20000132002D08BF13460BB13878984724684F
:102A3000002CF4D186F31188BFF36F8FF8BD00BF6F
:102A4000600B0020680B00202DE9F341184F194C52
:102A50003B7801463BB96D46284612F0F1FD95E8FA
:102A6000030084E803002578F5B1134E4FF0000809
:102A70000120043DC6F80080FFF7C0FF012D98BF7C
:102A80000E4B94E8030098BF83F8008012F000FF1B
:102A9000306840B9012338703360FFF7AFFF94E826
:102AA000030012F008FF2578284602B0BDE8F08147
:102AB000BC4C0020680B00201000002003510020B7
:102AC00008B5064B186840B901221A60FFF796FF57
:102AD000034B93E8030012F0EEFE08BD1000002047
:102AE000680B00200E4A70B5841AA3100D4C5C438D
:102AF0000546E4B20C2000FB04200E4640210844A9
:102B000012F0ABFD011E05DB074B03EBC404636849
:102B10009847002128463346BDE87040184700BF5B
:102B2000800B0020B76DDBB60C6A01002DE9F04187
:102B3000104E841BA310104C5C43E4B20C2565437B
:102B4000804605F140000F463044402112F09EFDC2
:102B5000011E09DB094A7319C3E90E27084B53F814
:102B60003430BDE8F041184740463B46BDE8F041EF
:102B7000184700BF800B0020B76DDBB6EF56010091
:102B80000C6A0100002270B501210446104600F0D5
:102B900039FB002000F004FB0F4810F055FF0F4BED
:102BA000984215D113F08FF9E6680D49304612F0BE
:102BB000E8F900280BDB01253564E468084904F1D5
:102BC0001C0012F0DEF9002801DBE564002070BD76
:102BD0006FF00400FBE700BF192C00000000AD0BF4
:102BE0001C6A010001460C2309484B4370B5C41808
:102BF000D4E90E5600224033A263184412F064FD5B
:102C00002DB132462B460348BDE87040184770BDD1
:102C1000800B00204806002010B1012804D0704726
:102C2000034B1B6C5B0701D1FFF7DCBF704700BF94
:102C3000800B002008B54FF02003EFF3118183F3E0
:102C40001188BFF36F8F124A136843F0020013F02C
:102C5000010310600CD04FF08042D2F80C34D2F84F
:102C60000C2413F0010303D00A4812F02DFD0123B8
:102C700081F31188BFF36F8F23B1BDE808400020B6
:102C8000FFF7B0BFBDE80840012010F0EDBE00BF67
:102C9000D00B0020C00B0020094BBFF35B8F53E823
:102CA000002F22F0020143E800100028F7D1BFF303
:102CB0005B8FD30702D4012010F008BF704700BF1C
:102CC000D00B00207FB500220123CDE9022304AB05
:102CD000CDE90433094ACDF800D06B46CDF804D0D5
:102CE00012F02BFD002805DB4FF4804200236846DC
:102CF00011F016FD07B05DF804FB00BF0D57010091
:102D0000024AC3B21C2003FB00207047800B002046
:102D1000094BBFF35B8F53E8002F42F0010143E8FA
:102D200000100028F7D1BFF35B8F930702D4012076
:102D300010F09ABE704700BFD00B0020094BBFF3C4
:102D40005B8F53E8002F22F0010143E800100028B8
:102D5000F7D1BFF35B8F930702D4012010F0B6BE0A
:102D6000704700BFD00B00202DE9F8433A49BFF36C
:102D70005B8F0646012251E8003F41E80020002811
:102D8000F9D1BFF35B8F33B9344935484B60CB6021
:102D90008A6012F009F9731E012B32D8012E07D177
:102DA0004FF08043D3F81C3403F00303012B28D0E9
:102DB00013F0D5FA044618B92A4B1B78002B44D1DE
:102DC0004FF02003EFF3118583F31188BFF36F8F6A
:102DD0000124254FDFF89480DFF894904FF0804273
:102DE000D2F81834D2F81824D2030CD503F0030318
:102DF000012B01D0012E06D10CB385F31188BFF34E
:102E00006F8FBDE8F883ACB1284600F085FA4FF02B
:102E10008042D2F81835002BE0D139680029DDD086
:102E20003B603B680123C2F81835C8F88031C9F807
:102E30000030D3E70021212011F024FCE7E74FF018
:102E400080430222C3F80423DBE74FF080430222D1
:102E5000C3F808230546BCE7D40B0020700B002004
:102E60009C0B0020045100200401004000E100E020
:102E700008000040044A1368C81A20F07F40034449
:102E8000136011F0BFBE00BFE40B00202DE9F04736
:102E9000860006F1804600F1500406F58836A4004D
:102EA000DFF87C80D6F84035A4B204F180444FF4BA
:102EB000803721F07F4504F588348740C146D8F833
:102EC00004A5A3EB0A0323F07F432AF07F42012BE2
:102ED000C6F8402502D1132013F047FA0AF1020286
:102EE000AB1A23F07F43B3F5000F88BF15460023CC
:102EF00023602368C9F8447325F07F43C6F8403542
:102F0000D9F804359A4506D0EB1A023B23F07F43EB
:102F1000B3F5000F01D8BDE8F0872B46CFE700BF1F
:102F200000100140F8B5104E104F0025104B002046
:102F30001C681A4605B1F8BDD6F80413C903FAD5C2
:102F400039680029F7D03D6039684FF48031C6F800
:102F50004813D6F8401501251CB15A681860A047DF
:102F6000E4E71460E7E700BF0010014040110140B2
:102F7000D80B002038B5104D00244FF48033C5F82D
:102F80000845C5F804330D4B4FF40032C3F88021D7
:102F900001212246112000F035F9112000F000F93E
:102FA000074A01231360074A2B6002201360FFF7D2
:102FB000DBFE204638BD00BF0010014000E100E00C
:102FC00008100140E00B0020134BB0F1FF3F08BF99
:102FD0001846013800281CDD9842A8BF18460F4B40
:102FE000D3F804250E4B1968521A12F4000F22F080
:102FF0007F4318BF00200B4A013303440A48106086
:1030000000205060044A934294BFC9188918FFF702
:103010003DBF0020E3E700BFFFFF7F00001001403D
:10302000E40B0020D80B0020752E00004FF020028A
:10303000EFF3118382F31188BFF36F8F064AD2F842
:103040000405064A1268801A20F07F4083F3118835
:10305000BFF36F8F704700BF00100140E40B0020EA
:103060004FF02003EFF3118283F31188BFF36F8FCA
:103070000649074B0868D3F8043582F31188BFF37B
:103080006F8F1B1A23F07F4318447047E40B002016
:103090000010014010B5114C114AA2610323C4E98C
:1030A0000433104BE36122664FF480630E4A0F49EC
:1030B0002362626600231022E01DA3626362E36262
:1030C0002367E3666367A26612F06CFB084920463B
:1030D00012F068FB2023A37110BD00BFE80B002095
:1030E0000C740100CD4C0020BD4C00201574010073
:1030F000197401000A4A0B4993680968C3F88010E3
:103100000949D8674B6843F080534B60002383F331
:103110001188BFF36F8F9368D3F88000704700BFAA
:10312000684C0020DC73010000ED00E012498A6861
:103130004FF038001044EFF3098C80E8F01F202096
:1031400080F31188BFF36F8F0C4F4FF000668A6ACF
:103150008A603E60D06F0023D36780F3118804B586
:10316000104600F077FABDE8044002F1380090E81C
:10317000F01F8CF309887047684C002004ED00E0D4
:103180001EF0040F0CBFEFF30880EFF30980816994
:1031900011F8021C0229FFD001B512F0F8FA01BDA6
:1031A00043B2002B08DB012200F01F0002FA00F0FE
:1031B0005B09024A42F82300704700BF00E100E0CB
:1031C00043B2002B0DDB01225B0900F01F0002FA65
:1031D00000F02033034A42F82300BFF34F8FBFF3C0
:1031E0006F8F704700E100E0054B420900F01F00BF
:1031F00053F82220012303FA00F01040704700BF6B
:1032000000E100E043B2002BA8BF03F1604301F1ED
:103210000101B8BF064B4FEA4111ACBF03F5614352
:1032200000F00F00C9B2B4BF195483F800137047FF
:1032300014ED00E008B572B6044B586A18B10022CC
:103240005A6210F0B7FD62B608BD00BF684C00209E
:1032500042F8203C009B42F81C3C0A49019B42F882
:10326000183C029B42F8143C21F001014FF080739E
:1032700042F8043C42F8081C0023203A8265C367E8
:10328000704700BF855001000B4A0346906890B11B
:1032900013F1160FC06E05D0A0F120029A4206D895
:1032A000834204D281422CBF0021012100E0002191
:1032B000002908BF00207047684C002008B504466C
:1032C0000E46154600F0BAF9084B20469C6000F007
:1032D000C1F9284686F30988002163B681F3118875
:1032E000BFF36F8F0022002311F0CCFE684C00204A
:1032F000014910220A60704710ED00E072B64040AC
:1033000080F31188BFF36F8FBFF34F8F30BF62B66A
:10331000BFF36F8F704700BF72B6494081F31188C9
:1033200020BF80F3118862B6704700BF30BFFFF73F
:10333000FDBF00BF0E4A08B50E4B22F07F029A6017
:10334000BFF34F8FBFF36F8FD3F8882022F4700242
:10335000C3F88820EFF3148323F0040383F3148865
:1033600010F072FD11F054FB00F03AF910F090FDEE
:103370000000000000ED00E001B572B60B4A506A93
:1033800000281EBF0021516210F014FD62B6EFF359
:103390000580A0F110004FEAC0000549014409C9A9
:1033A0009847BDE80140034908470000684C0020E9
:1033B00058680100C535000012F068FA202080F33B
:1033C000118808484FF40261401880F30988EFF330
:1033D00014800221084380F31488BFF36F8FFFF736
:1033E000A9FF0000C05E0020EFF30880EFF3098121
:1033F00001B5724600F068F801BD00BF38B5194B41
:1034000014469A6A9A6A9A6A0546900719D5586BC3
:103410009A6A120615D519B19A6A22F080029A6248
:103420009A6A9A6A9A6AD1060ED49B6A9A070BD452
:1034300000200C4A936A43F0FF0393620023237039
:1034400038BD6FF01500EBE7064B5B681B05EFD549
:103450002946FFF719FF0028EAD080F309880220E7
:10346000E7E700BF00ED00E00D4B9A6A9A6A9A6A9E
:10347000920508D59A6B9A6A120404D518B19A6A13
:1034800022F400429A62064B9A6A9A6AD20558BFA1
:103490009A6A9A6A002042F47F429A6208707047E2
:1034A00000ED00E0074B9A6A9A6A9A6A9A6A9A6AE9
:1034B0009A6A9A6A6FEA02426FEA12429A6200209E
:1034C000704700BF00ED00E070B5374B5B688AB015
:1034D0000E46C3F30803002585F31188BFF36F8FF1
:1034E00002F07F41B1F17F4F11D102F00C010829A8
:1034F0000DD0110701D4064601250022033B8DF8AB
:103500000720032B48D8DFE803F0043F433C2E4656
:10351000F3E7254BDA6A92073ED4DC6A14F0804464
:1035200009D028331B78F3B10DF107020121304691
:10353000FFF764FF04469DF8073093B92022314617
:1035400002A812F055F9099B45B3C3F3080222B94A
:103550006FEA53236FEA4323099302A9204612F02E
:1035600014F90AB070BD114B1B782BB10DF1070196
:103570000120FFF779FFDDE70D4B188884B2002C9E
:10358000D9D0FFF78FFFD5E70DF107020021CEE775
:103590000DF107010020ECE70024CCE723F4FF73D2
:1035A00023F00103D8E700BF00ED00E029ED00E0C3
:1035B0002AED00E0024A536943F01003536170475B
:1035C00000ED00E0044B9968986A884203D00349F3
:1035D0004FF080520A607047684C002004ED00E014
:1035E000044800232021C2180133302B82F8001335
:1035F000F9D1704700E100E008B50E4B9B688342AB
:1036000007D1EFF3058393B10B4A536843F080531E
:10361000536010F0CDFE4FF02003EFF3118083F3E1
:103620001188BFF36F8FBDE8084012F0C2BD11F0E2
:1036300075F900BF684C002000ED00E0024B034A22
:103640000348012100F096B800000420000000208B
:10365000286A0100C26E054B203A1A60044A2021F4
:10366000C3E901121846012100F08EB8900C002029
:1036700000000B15F0B51E4F00268E4201DB1046F0
:10368000F0BD446884B353B104F1FF3C14EA0C0F5D
:1036900018D11F2C16D905681CEA050F12D1202C51
:1036A0000568D0F808C0D2B20FD9B4F1004F0ED8D7
:1036B000013CB4FA84F4C4F11F046400072A4CEA04
:1036C000040406D96FF01502D9E70824F6E73E2472
:1036D000F4E725F01F05154345F0100544F00104FB
:1036E000BA60FD6001323C6101360C30C5E700BFB5
:1036F00090ED00E0034B05225A60BFF34F8FBFF3FC
:103700006F8F704790ED00E0BFF35F8F014B002299
:103710005A60704790ED00E013490868082810B51A
:103720001ED8FFF7F1FF114C49680022904201F1C9
:103730000C0105D10E4B1870FFF7DCFF002010BD07
:10374000A26051F80C3C23F01F03134343F0100315
:10375000E36051F8043C43F0010323610132E5E7E3
:103760004FF0FF30EBE700BF346A010090ED00E05E
:10377000CD50002010B5034C01232278FFF77AFFCB
:10378000207010BDCD50002008B5084A00231278E3
:10379000FFF770FF10F1160F03D0054B002207282A
:1037A00000DD08BD98601A610130F8E7CD500020B7
:1037B00090ED00E04FF02003EFF3118283F31188C6
:1037C000BFF36F8F06490123C1F840354FF08041A8
:1037D000C1F8783582F31188BFF36F8F00207047EE
:1037E00000E0014020B1034B800143F00103184782
:1037F000704700BFF0690100074A0346106828B906
:10380000D96831B1196921B1136070476FF0440074
:1038100070476FF0150070479C0C002070B500F0E9
:10382000FD06012E05460BD1064812F0DCF80446D1
:1038300020B13146083012F0F5F82575204670BDEC
:103840000024FBE7940700202DE9F0410228DDE980
:103850000667044629D0062802D040B300251EE0A2
:10386000144909780129F9D13478012C1AD0022C95
:10387000F4D111480136013F12F0B5F80546002891
:10388000ECD000F108080121404612F0CBF82C756D
:103890002EB127B13A463146404612F0DAF82846B2
:1038A000BDE8F08105480024E4E70348E4E7034865
:1038B000E2E700BF44060020440700206C07002018
:1038C00010B50D4B1B78012B04460CD1037D012B49
:1038D00004D0032B0ED06FF0150010BD042104F1AD
:1038E000080012F0BFF8054B2146186812F09EF848
:1038F0000020F2E70221F2E744060020A00C00209D
:10390000014B1B681B6918479C0C0020044B054A9F
:103910001B6810600BB1DB6818476FF0120070472E
:103920009C0C0020A00C00202DE9F0411446C21D83
:1039300022F00302671EBFB2186082B005460E4631
:1039400001FB070014800021042211F07CFFB7B1B5
:10395000023CA4B204FB066304FB06F71D44FF1AF5
:103960004FF6FF780422013CE8190DEB0201A4B2E6
:10397000019511F03DFF4445A5EB0605F2D102B0DB
:10398000BDE8F08170B5056882B095B1EB1D23F0FC
:1039900003030422044629460DEB02001E8811F0A1
:1039A00027FF019B23B1DA1D22F00302013E16809E
:1039B0002360284602B070BD0B6870B50C46054602
:1039C00083B1073323F003031E880136B6B2042205
:1039D0002146284611F00CFFEB1D23F003031E8047
:1039E000256070BD0126F2E702FB0100704700BFB1
:1039F000401A80B2B0FBF2F0704700BF531E114472
:103A00009BB242B1DB43CA18013811F8013D00F8FE
:103A1000013F9142F9D17047014402E010F8013BA7
:103A20001BB98842FAD1002070470120704700BFBF
:103A300010600860704700BF0A6803460068904243
:103A400005BF00220A6000201A60704710B4146895
:103A500020601468616010BC10607047884203D019
:103A60001AB1436813607047002070470B688342A7
:103A700009D02AB1586810601A680A601846704761
:103A8000002BF9D1FAE70023F8E700BF2DE9F04158
:103A9000DFF834800B4E0C2706F130044546221D1A
:103AA000214628460C3CFFF7C3FFB442A5F10805A8
:103AB000F5D1043F3B1DA8F12008A4F13006EBD15D
:103AC000BDE8F081AC0D00201C0D002030B4034691
:103AD0000C469AB101EB41010801144D03EB43017F
:103AE00000EB81012944487A0D7AA84204BF0130D5
:103AF00008722146184630BC0EF0E2BC01EB4102D0
:103B00000A4D120100EB400302EB83032B449D7A24
:103B1000DA7AAA4201D030BC7047054D01329A7260
:103B200001236B5430BC0EF009BD00BF280D0020EE
:103B3000240D002070B51C4606460D4622B363785E
:103B40002278D21A12F0030205D0012A40D00133A4
:103B5000DBB223700FE03022042112FB05110C228E
:103B600012FB061201331B496068DBB20A44237062
:103B70002146FFF76BFF184B3046012229465A5564
:103B80000EF0DCFC002070BD0EF0C2FC0028D6D088
:103B9000294630460EF0A8FC0028D0D005EB45029F
:103BA00011010C48637806EB460201EB82020244E5
:103BB000917AD27A9142C3D12278D21A920702D056
:103BC0000233DBB22370D4E902039847002070BDB2
:103BD000104670BD280D0020240D00204E490B5CBE
:103BE000002B00F098802DE9F04F4C4B4FF03C0B30
:103BF00087B000220BFB003B0A5400EB40070BF19F
:103C00000401039203EB071701924FF00309884662
:103C100002900023D7E9090105AA0593FFF71EFFCB
:103C200007F124068346002834D0059C2578637864
:103C3000ED1A05F00305012D06D1013B6370D4E9AF
:103C400002039847059C637894F800C0B86AACEB0F
:103C5000030303F00303012B4FF0000231465FFA28
:103C60008CFA0DD0FFF702FF62782378C4F804B015
:103C70009B1A03F00303012B84F801A044D0B86A17
:103C8000014605AA786AFFF7E9FE012D834629D08F
:103C90000028CAD197F82E3097F82F209A4203D0E7
:103CA00087F82F300123019397F82C3097F82D20B7
:103CB0009A4203D087F82D300123039309F1FF398D
:103CC0005FFA89F9B9F1FF0FA7F10C07A1D1DDE97E
:103CD000013AB3B1039BA3B91A46514650460EF0C0
:103CE000EFFB0EE0B9F1000F01D10028D2D0DDF8D2
:103CF00008A0094A01235146504602F80A300EF046
:103D00001DFC07B0BDE8F08F627021465846424660
:103D1000FFF79CFEB3E77047240D0020280D00201C
:103D2000A1B14B1EDBB210B4411EC418002011F823
:103D3000013F3BB15BB25A1E1340013013F0FF0349
:103D4000C0B2F7D1A142F2D110BC7047084670470B
:103D50002DE9F04FAD4D83B0044603270126042121
:103D600020460BF09BFC6378E27894F802C0207840
:103D70004CEA022C40EA03204FF0000840EA0C40D5
:103D8000C3464FEADC3CC1461E234FF0010A1AE04D
:103D900008F101010E2BC9B25FFA83FC40F28A8060
:103DA000CAB39446CE461C2B40F21D811B2B40F219
:103DB000F080192939D088469246BEF10C0FF146A1
:103DC00033D0013B39D320FA03F202F001026245FD
:103DD000DED10AF10102072BD2B240F2C480062ADA
:103DE00077D906FA03F2BCF1000F51D020EA0200A5
:103DF000CE464FF0000C08F101010E2BC9B288BF6E
:103E00000122D6D8F14500F0A18019290DD08846AD
:103E10004FF0010AD5E7CE460122052B75D9062AB7
:103E200054D119294FF0000CC5D1013306FA03F320
:103E3000BCF1000F53D05B42184080EA05030193A8
:103E40000DF1040C0DF1080E00221CF8013B3BB1F2
:103E50005BB2591E0B40013213F0FF03D2B2F7D10F
:103E6000F445F2D1012A09D983B2B3EB104F4FEADE
:103E7000104237D1C3B2B3EB106F33D1013F17F00B
:103E8000FF077FF46CAF6FF00D0003B0BDE8F08F5B
:103E900010434146CE464FF0010C8845ABD00E2B67
:103EA0008BD8CE458DD141460EF1010E5FFA8EFEC4
:103EB00052467EE709F1010EBCF1070F5FFA8EFE54
:103EC00040F29480002A40F09A8001224FF0000CCA
:103ED00069E7BCF1000F10D14146CE469FE7013B98
:103EE0001843AAE7C0F30721130A2070002061706D
:103EF000A270E37003B0BDE8F08F062A02D14146FC
:103F0000CE4658E74146CE464DE7BBF1000F0CD0F8
:103F1000BCF1040F83D8BBF1010F06D9BCF1030F2C
:103F20003FF67DAFBBF1020F09D806FA03F210434A
:103F30000BF1010B5FFA8BFB4FF0010CADE7062A8A
:103F40003FF46FAF29B14FF0000C2FE74FF0010A9B
:103F5000AAE706FA03F2072B40EA020088BF4FF0F7
:103F6000010C9AD8E4E7BCF1000F2AD00BF1010B49
:103F7000062A5FFA8BFB1DD906FA03F220EA02003B
:103F80004146CE460BF1FF3B5FFA8BFB4FF0000C36
:103F900083E701293FF60DAF06FA03F2BCF1000FEB
:103FA000D9D0072B20EA020088BF4FF0000C3FF663
:103FB00074AFE7E7A3D0B8F1000F0AD04146CE4670
:103FC000F4E6062A0AD906FA03F210434146CE4621
:103FD000AEE706FA03F24146CE46E2E74146CE4658
:103FE0005FFA83FC19E70029D6D0DFE6002A3FF408
:103FF00013AF0BF1010B5FFA8BFB9446D6E6012958
:1040000001D09446D5E601FA03F2CAE7D6BE898EFE
:104010002DE9F04F827F8DB001230492C377002AEF
:104020005BD1437FFF2B814656D00DF01DFCD9F8A4
:10403000142099F81C3099F81D60801AFF2B20F08D
:104040007F4B00F03B81D9F818305B4594BF0023CB
:1040500001230193FF2ED9F800704FF0000846D0DD
:10406000CDF8089006EB460607EB06143601A26869
:104070005A453AD894F802A06378BE5DA3EB0A03D0
:10408000DBB2012BABEB020B90442CD1A0690028D2
:1040900056D0019B002B00F08D80E38B0393A36A25
:1040A0003BB11A681AB11A7A002A00F0F480002293
:1040B0001A72039A94F82C10013292B2E28379B109
:1040C000A18B91420CD2002B00F0FB801A7A012ABE
:1040D00006D04FF0010C37E0C2770DB0BDE8F08F8D
:1040E0000AF1FF33A370FF2EBCD1DDF8089099F8D8
:1040F0000B3099F80A209A420AD10132D2B2022A30
:104100001CBF13460493049A89F80B2008BF0023B0
:1041100009EB8303D9F82440C3F80C80002289F806
:104120001F204B46012204210320A4460DB0BDE808
:10413000F04F6047DDE909B8DDF820A00B9E4C4642
:10414000A36ADBB14FF0000C00221A72E5685A60D6
:104150000AF1FF33A370002DC5D0029B6269586934
:10416000616A2369A8EB0202104420F07F40BCF191
:10417000000F13D04FF6FF72A847B4E7E5680AF1C5
:10418000FF33A370002DAED0029B62695869616A4B
:104190002369A8EB0202104420F07F40E28BA8477D
:1041A000A26900239A42019AE38318BF0122019277
:1041B000E37098E794F92D3005938033C0D0FF2E3B
:1041C000BED0E38BA28B0393934228BF9B1A059921
:1041D0006268CDF820A0591A03FB02230693CDE9AB
:1041E00009B8079133460025A1460B9600922CE0B2
:1041F000009CAAEB0808002C48D0069C0AFB0C88FF
:1042000044458CBF4FF001084FF0000834BF4FF019
:10421000010A4FF0000AB14292F803B099F8032066
:104220000FD3934543D81EF1800F40D0079AACEBD3
:104230000E0C944502DDB8F1000F38D0059A724596
:1042400032D0FB5CFF2B3FF475AF1BB203EB430393
:1042500007EB03121B01D2F808804544A842FFF483
:1042600069AF91690029ECD0D18B968BD2F804A06C
:1042700092F92DE0B1428C4628BFA1EB060CBAF1B1
:10428000000FB5D1009CD046002CB6D1DDF800A0BF
:104290004FF00108BFE7A28B03998A423FF607AFB0
:1042A0004FF001021A7204E7BAF1000FC9D0DDE93C
:1042B00009B8DDF820A00B9E4C46F0E6049B019364
:1042C000C8E6E5680AF1FF33A370002D3FF40BAF99
:1042D000029B60695A69616A2369A8EB0000104477
:1042E00020F07F4046E700BFC27F002A40F02186D1
:1042F0002DE9F04F837AC17A8FB0834640690590EB
:1043000099424FF001008BF81E0000F096800344A4
:10431000DBB2022B08BF13460BEB83028BF80A308B
:10432000D368059A0293D31823F07F43CBF8143057
:1043300001230D939BF809309BF81D200692DBF8B2
:104340000020DBF80410079304921A46013B0C91FD
:10435000DBB2002A00F0248301EBC306002308939C
:10436000FF2301933746D9467B68079397F803C02C
:10437000BB78BA460799984603EB430203EB8202E7
:10438000581C634501EB8205C3B200F087819AF89F
:104390000000984208BF00238AF8023011F822205A
:1043A000042A40F27981072A00F286806978049C09
:1043B00001EB410004EB00140001A7780A9060783B
:1043C000C01B10F0FF0077D0052A65D0012837D137
:1043D00099F81DC0D9F80060BCF1FF0F17D00CEBA5
:1043E0004C00614506EB001000F09080002301E0D6
:1043F000614570D0E64690F800C0D0F80880BCF166
:10440000FF0F0CEB4C00434406EB0010F0D10026EC
:10441000052AA66000F02B81677099F81C308B424A
:1044200022D0EB6A00202870A8620BB1296B984754
:104430009AF803C09AF802309CE70D92029279E74D
:1044400004214B460122D9F824400846A0470C9A83
:104450008AF8028057460123BA420893A7F108035D
:1044600000F023811F467FE7FF23072A89F81C30CD
:1044700040F0E2816868D9F81430C21A140200F1E1
:10448000D28122F07F43029A1344D9F818209A422D
:1044900088BFC9F81830C4E76E68002E96D1AE68A0
:1044A000002E93D1EE68002E90D12E69002E8DD172
:1044B0006E6936F07F4689D1EA6A002101202970B1
:1044C000A862002A3FF456AF296B90479AF803C0C0
:1044D0009AF802304EE70EEB4E07714506EB0717D0
:1044E00016D00178D0F808C03970FF2906D001EB4A
:1044F000410106EB01118868604488600CEB0306FB
:10450000052AA66009D0A778697885E707460023C1
:10451000027889F81D202A78E3E7D9F81470039708
:104520000DF0A2F9029BA0EB070C2CF07F473B4457
:104530009E42804640F2A7806269F31A6668002EA8
:1045400053D0A88A002850D0013880B29E42E18B17
:10455000A88225D206F1010B0B9211E000F1E87060
:1045600000F5D43000F5A570DE46099A0139A3EBB9
:104570000E0389B2801A9E42E18360620ED2A88A3D
:10458000884280F0C181D4E90820DFF8D0E20992A6
:10459000B14A86449645E1D8B646E6E70B9AA88A22
:1045A000884221D9206A099006F1010E0B9207E09A
:1045B0006062B346A88A013189B281425B4411D25C
:1045C000099A606ADFF894B21044A34A8344934581
:1045D000EED8A0F1E870A0F5D430A0F5A570606227
:1045E000F346E7E70B9AE183A083D5E9010EA66ABB
:1045F00003447244A360626136B1316821B1A0EB1B
:104600000E007060A36862691CF4000F26D13B4461
:10461000934220D99B1A0022A3606261E968A369D2
:104620002A690B44934288BF9B1AAA7D98BF002336
:10463000A36102B1E270EB7D13B1013B84F82C3031
:10464000049B0A9A1946019B8B5463786A780192FD
:1046500001336370E5E6D21A0023DDE70399A1EB8D
:10466000080727F07F479F4213D2DB1BD0E7D9F81A
:10467000147003970DF0F8F8029BA0EB070C2CF0D8
:104680007F4780463B4461690B449A1B626100236B
:1046900054E73A44D21ADFE798466DE60C9A57463B
:1046A000BA42A7F108037FF4DDAE99F81D70069BAE
:1046B000DB1B18BF012307930D9BCB46002B40F05B
:1046C000778199F80920D9F80030D9F804100493BB
:1046D000531E0991DBB2002A00F01A8101EBC308D6
:1046E0000D9B0393D8F8043098F801600593019B63
:1046F000FF2B5ED0DDF804A0049B0FFA8AF404EBD4
:1047000044044FEA041C03EB041413F80C30019327
:104710000025FF222270DBF800709BF81D3007EBAC
:104720000C009342816818BF029211D198E0B1EB5E
:104730000C0106D1BEF81EE0B0F81E90F14500F263
:10474000E08017F802C00293BCF1FF0F77D06346F8
:1047500003EB430C07EB0C1E4FEA0C12DEF808C00B
:104760008C45E4D9029A8160FF2A03706CD18BF8E2
:104770001DA0FF2B06D003EB430307EB0317BB6819
:10478000591AB960A37801336370002DAFD0EB6A7A
:10479000039A2A70AA6213B1296B002098476368B4
:1047A000002BA4D1D5E90B23C4E90823019BFF2BDF
:1047B000A0D198F80230B3422ED0059F98F800009F
:1047C00006EB460206EB8202013617F82210F6B21B
:1047D000B04208BF0026042907EB82051AD195F8DC
:1047E00001A0049B0AEB4A0C03EB0C144FEA0C1CCF
:1047F0006178A378C91A11F0FF0136D0039B07F83E
:104800002230EB6A0122AA6210460BB1296B98474D
:1048100098F80230B342D1D1099A4245A8F1080371
:1048200074D098465EE7029A1B1A23F07F439A429F
:104830008CBFD31A002328E60DF016F81BE61A46A3
:10484000816080F800C0634612B202EB420212019E
:1048500007F802A08DE700BF592B177F5A2B17FFCF
:1048600007F80C308BF81DA08CE7AF8ADBF814E05A
:10487000D5F824904FF6FE739F42D5E903023AD053
:104880004FF6FF73FB1AB3FA83F35B09C4F8289061
:104890004FF6FD796060226284F82C304F4588BF66
:1048A0000027D5E906236868A2612A6AA783A0EBDE
:1048B0000E07C4E903323A02AB680CD427F07F47F5
:1048C0003B448BB1A360039B6362E3834FF001031E
:1048D0006161E3701DE7AEEB000222F07F4293427C
:1048E00005D99B1A002BEDD119460023EAE7D31A0C
:1048F00019460023E6E7C4F82890606022620F465C
:10490000CFE7029A61462EE70B9A49E69BF81D70A5
:10491000069BBB4200F01B83089B002B00F03D83ED
:1049200000239BF81D708BF81E30FF2F00F0C3830F
:10493000069BFF2B00F0DD83DBF80030BA4D07EB60
:10494000470703EB07130A279E680CF08DFFDBF87F
:104950001430DBF82820C41A24F07F440334B44216
:104960002CBF1B199B1923F07F448046204690479B
:104970000CF07AFFA0EB0800A4EB080420F07F40C5
:1049800024F07F440330A04207F1FF3740F2EA826F
:10499000002FDAD140F6BA012846FDF7B5FED4E77C
:1049A0000D9B002B00F0EC82079B0893FF230193E3
:1049B0000CF05AFFDBF800309BF81D500393059B69
:1049C000FF2DA0EB030020F07F484DD0DDF808A0BC
:1049D0004FF00009039B05EB450403EB0414A368A7
:1049E0009A45C0F0D382DBF81820B4F81EE0934259
:1049F000AAEB030A9944A8EB030825BF4FF0FF3345
:104A00008BF81C30D31A0023CBF818306178A078CB
:104A1000A769A26A666894F800C004970B1ADBB213
:104A200017B1022B00F03F810027A7608BF81DC053
:104A3000002E40F0FB801AB1127A012A00F0D580D6
:104A400053B1012B02D0BEF1000F05D0236A1BB178
:104A50000120616A9847A07860709BF81D50FF2D77
:104A6000B8D1DBF800300393DDE906409BF809205C
:104A7000DBF804100991531EAC4218BF01200790C7
:104A8000DBB2002A00F0868101EBC308D8F80430BD
:104A900098F801600593019BFF2B62D0DDF804A01C
:104AA000039B0FFA8AF404EB44044FEA041C03EB63
:104AB000041413F80C3001930025FF222270DBF858
:104AC00000709BF81D3007EB0C009342816818BF03
:104AD000049212D156E1B1EB0C0106D1BEF81EE0F2
:104AE000B0F81E90F14500F2FE8017F802C0049362
:104AF000BCF1FF0F00F0EB80634603EB430C07EBC8
:104B00000C1E4FEA0C12DEF808C08C45E3D9049A5B
:104B10008160FF2A037040F0DF808BF81DA0FF2B1F
:104B200006D003EB430307EB0317BB68591AB960C0
:104B3000A37801336370002DADD04FF00002EB6A13
:104B40002A700022AA6213B1296B10469847636845
:104B5000002BA0D1D5E90B23C4E90823019BFF2B2F
:104B60009CD198F80230B34230D0059F98F80000ED
:104B700006EB460206EB8202013617F82210F6B267
:104B8000B04208BF0026042907EB82051CD195F826
:104B900001A0039B0AEB4A0C03EB0C144FEA0C1C1C
:104BA0006178A378C91A11F0FF0100F09F804FF0DF
:104BB000000307F82230EB6A0122AA6210460BB10B
:104BC000296B984798F80230B342CFD1099A4245F1
:104BD000A8F1080300F0DB80984657E7C4F808E026
:104BE0008BF81DC0002E3FF427AF5346059EDBF81F
:104BF0001420616906EB0907BE1A16F4000F47D1AD
:104C000026F07F46334499424AD25B1A0021019A2A
:104C1000227001306070A360616101959BF81D50A6
:104C2000FF2D7FF4D7AE1CE7846A010012B1137A1E
:104C3000012BDAD0BEF1000F46D1A78B04970846AE
:104C4000711CD4E908C2CDE90910002304E0314603
:104C5000013F0B44791C10D0B649B7486244511843
:104C60008142F4D80999A2F1E872013FA2F5D43249
:104C70000B44791CA2F5A572EED194F82C100A9879
:104C80006262002900F03081049A7244E283ADE749
:104C9000D21B22F07F429A4213D29B1A9942B4D37C
:104CA000C91A0023B3E7BEF1000F7FF4BDAE12B105
:104CB000177A012F92D0049F8BF81C50CBF81870F4
:104CC000B2E61144C91AECE700270497B8E71A4680
:104CD000816080F800C0634612B202EB420212010A
:104CE00007F802A01BE7049A614611E7AF8ADBF8D8
:104CF00014E0D5F824904FF6FE739F42D5E90302E5
:104D00003AD04FF6FF73FB1AB3FA83F35B09C4F88A
:104D100028904FF6FD796060226284F82C304F4570
:104D200088BF0027D5E906236868A2612A6AA7839D
:104D3000A0EB0E07C4E903323A02AB680CD427F0AB
:104D40007F473B448BB1A36000236362E3834FF052
:104D500001036161E370B0E6AEEB000222F07F4236
:104D6000934205D99B1A002BEDD119460023EAE79F
:104D7000D31A19460023E6E7C4F82890606022623F
:104D80000F46CFE707F80C308BF81DA0D0E6DBF814
:104D9000003003939BF81D70039E0023BA46BAF1BE
:104DA000FF0F10D0D1460FFA89F202EB420206EB58
:104DB0000212976A17B1397A012914D092F800903B
:104DC000B9F1FF0FEFD15746002B3FF4A1AD069A82
:104DD000BA427FF4A1AD089A002A00F07A8100233C
:104DE0008BF81E30A1E59BF81C30FF2B71D0DBF84F
:104DF0001800029B83426CD2C01AD7E90043A34239
:104E000092F800C06DD2BCF1FF0FA4EB030468D090
:104E10009569A5424FF0000333D89E46019561463F
:104E200003921DE0D1F80880A8F10403B8F1040F43
:104E3000734409D9A342019A28BF2346934203D958
:104E40005B1B01D083421BD288690978C644404469
:104E5000631B0EEB0502FF29019211D094420FD380
:104E600001EB410106EB0111D1F82880B8F1000FE8
:104E7000D8D098F80880B8F1010FD3D10978E8E7C5
:104E8000039A936064464FF0FF0E00E0044621B29F
:104E900001EB410006EB00180001D8F808509D42D4
:104EA0004CD25B1B9360305CFF28A646EED101EB31
:104EB000410109018BF81DC0735C137006F8019065
:104EC000E246D38B013BD3834FF0020201233A72B7
:104ED00065E7D7E90043A34292F800C04FF0000015
:104EE00091D300239360ECE798457FF6CDAE771C15
:104EF000099705E037463B440131984589B211D9FD
:104F00000C4F0D486244D7198742F3D8099FA2F18C
:104F1000E8723B44A2F5D43201319845A2F5A5725E
:104F200089B2EDD8049E0A9862620E44B1B204912F
:104F3000AAE670475A2B17FF592B177FEB1ABEF1C1
:104F4000FF0FC8F80830BCD00FFA8EF1AFE7089B0E
:104F5000002B00F0A68000238BF81E30079B002B4F
:104F600040F0C4809BF81F206AB1DBF824405B4608
:104F7000012203210420A4460FB0BDE8F04F604792
:104F80000D9B8BF81E300FB0BDE8F08FA3EB0A032A
:104F9000A360DBF80030039366E59BF80930DBF88B
:104FA00004605C1EE4B2002B3FF4BAAC012307930B
:104FB00006EBC4044FF000096378E1786568994214
:104FC0000CD160E0012B5AD0637822780133DBB238
:104FD0009A4208BF00239942637054D01BB203EB7E
:104FE000430203EB820305EB830215F82330022B07
:104FF0001BD0032BE6D153789BF80810994211D9A6
:10500000DBF80010107903EB430301EB031383F883
:105010002D00C2F82890D36A13B1116B906A98479B
:10502000E178D1E701239362F5E7D2E9017097F8BF
:1050300000E0D2F80CC0DBF80010DBF81480BEF101
:10504000FF0F02D00368984524D09BF81D30C0F8AC
:1050500000804FF0000E0DE003EB430001EB001861
:105060000001D8F808A0D8F81880D644B8F1000F8D
:1050700002D10B5CFF2BEFD13B70CCF800E0D36A80
:10508000C2F82890C8E7A642A4F108033FF463AF32
:105090001C4691E70EEB4E031B01DCF800E0CB5CF5
:1050A000E8E79BF80930DBF804605C1EE4B2002BF3
:1050B0007FF47EAF4FE70CF0BDFB00287FF452AFCA
:1050C000CBF818000CF0D0FB9BF81F20CBF8140095
:1050D0004AE79BF80920DBF80460541EE4B2002A7A
:1050E0007FF465AF089B8BF81E301EE49BF81D70A3
:1050F0001BE40CF0B9FB04460CF08CFB9BF81D7014
:1051000000287FF419ACCBF8144015E4F0B4049FE8
:105110009DF81440069E00283ED1DFF884C04D1E45
:105120008CF80810CCF80020EDB249B105EB45052C
:1051300002EB0511914281F82D00A1F13001F9D166
:105140005A1E8CF80930CCF80470D2B27BB107EB50
:10515000C2025660114612F8083903EB4300E41A04
:105160008F4203EB8003E4B206EB8306F1D19CB9D6
:10517000079ACCF82020089ACCF824204FF6FF7329
:10518000099AACF80A402046CCE90544F0BCCCF8BA
:105190002820ACF81C3070470120F0BC704700BFDD
:1051A000E80D00200A4B2C2202FB003210B4546A96
:1051B0005CB100EB800200EB420003EB8003A446ED
:1051C000012210BC03210220604710BC704700BFC1
:1051D000E80D00202DE9F843DFF8A080BDF82CE0B1
:1051E0002C2707FB008704467D6805EBC10C15F8EA
:1051F00031909CF8036004EB840504EB4504751CB6
:105200000846EDB29CF80110A94598BF0025A942B7
:1052100008EB84082FD0DCF8041006EB460406EBFC
:10522000840601EB86044FF0040901F826906360C0
:10523000089BA360099BE3600A9B23610C9BA3610D
:10524000119B63620D9BE3610E9B23620F9BE362E4
:105250000221109B6270A4F814E02363A1628CF811
:105260000350D7E908359847434649460022A847E6
:10527000A06ABDE8F8830120BDE8F883E80D0020AE
:1052800030B58BB0DDE90E540095109D0194029568
:10529000BDF84440129D03940495139C149D0594FD
:1052A0000695159C169D07940024CDE90854FFF738
:1052B00091FF0BB030BD00BFDFF8A0C02DE9F84F63
:1052C0002C2707FB00C704467D68BDF834809DF895
:1052D00038E09DF844B0084605EBC10115F830A050
:1052E000CE7891F8019004EB840504EB4504751C1D
:1052F000EDB2AA4598BF0025A9450CEB840A2AD037
:10530000D1F804C006EB460406EB84060CEB8604D9
:105310004FF005090CF8269063600A9BA3600B9B75
:10532000E3600C9B23610F9BE3620226109B62707B
:1053300084F816E02363A4F8148084F817B0A662FA
:10534000CD70D7E908359847534600220421A84775
:10535000A06ABDE8F88F0120BDE8F88FE80D0020B5
:1053600030B589B0DDE90C5400950E9D019402958D
:10537000BDF83C409DF8405003940495119C129D4B
:1053800005940024CDE90654FFF796FF09B030BD1F
:10539000DFF884C02DE9F0412C2707FB00C7044645
:1053A0007D68084605EBC10115F83080CE7891F88C
:1053B00001E004EB840504EB4504751CEDB2A8453F
:1053C00098BF0025AE450CEB840421D0D1F804C071
:1053D00006EB460E06EB8E060CEB86084FF0060E2B
:1053E0000CF826E0C8F82C300226069B88F801202D
:1053F000C8F83030C8F82860CD70D7E9083598472C
:10540000234600220421A847D8F82800BDE8F081EF
:105410000120BDE8F08100BFE80D00202DE9F0413A
:10542000204F4FF02C0C0CFB007C0446DCF80450A1
:10543000084605EBC10115F83080CE7891F801E0FF
:1054400004EB840504EB4504751CEDB2A84598BF38
:105450000025AE4507EB840420D0D1F804E006EB2C
:10546000460706EB87060EEB86074FF602782EF806
:105470002680C7E90123069BFB60079BFB6202268F
:10548000089B3B63BE62CD70DCE908359847234634
:1054900000220421A847B86ABDE8F0810120BDE8D8
:1054A000F08100BFE80D002070B50A4D2C2202FBF0
:1054B0000052D2E9083604460846984704EB8403B4
:1054C00004EB430305EB8303B4460022BDE87040C0
:1054D00004216047E80D00200CF0C6B9401A20F006
:1054E0007F407047012813D808B548B931B1084644
:1054F0000622094910F07CF9074808BD064808BD96
:1055000041B108460622054910F072F9034808BD6A
:1055100000207047014808BD140E00201C0E00201A
:1055200070B5044600200D4603F0AAFA88B903F0CE
:1055300057FC10F006060CD12946062224B1064875
:1055400010F056F9304670BD044810F051F920466D
:1055500070BD0C2070BD00BF1C0E0020140E00207A
:10556000022801D00120704738B5044608461D4680
:1055700004F072F910B10020287038BD204638BD03
:10558000002303700B70704708B50248FEF734F92A
:10559000002008BD246B010030B5838983B023B19E
:1055A000037D0446C3B1022B04D06FF015052846D5
:1055B00003B030BD01A901F091F9019B054613B17B
:1055C000184610F0CDF9002DF1D120460DF0CAF9A2
:1055D0000025284603B030BD01A9019300F042FC2C
:1055E0000028F2D010F0BCF9019D002DEDD0284626
:1055F00001F0ACFD68710199014810F080FDE4E70D
:10560000E40600202DE9F041DFF8B4802B4F82B092
:105610000CE010F0A2F92246BDF80210044601F099
:105620007DFD204610F09CF90EF0DEFF0DF1020129
:1056300001A802F081FA04464FF0FF324FF0FF3329
:1056400000211320002CE4D1019B93B102F052FB06
:10565000019E304601F07AFD019D70716B79032B3C
:1056600002D12B79142B0CD02946384610F047FD77
:10567000DCE74FF0FF324FF0FF3340460FF050F8B9
:10568000D4E721464FF0FF334FF0FF320520EE887C
:1056900010F063F90446224605F11C00314601F082
:1056A00083F9304601F090F9204624B110F058F902
:1056B00020460DF057F9019DD6E700BFE406002013
:1056C000CC060020D0B51B4888B001F089FF044605
:1056D00000282CD1184801F04FFD002600276FF05C
:1056E00009030393CDE90667CDE90144134B14493F
:1056F000049400944FF4E07212480FF085F81249B8
:10570000104810F036FE6FF007030393CDE90667EB
:10571000CDE901440D4B0E49049400944FF40072FE
:105720000C480FF071F80C490A4810F022FE204690
:1057300008B0D0BDCC0600203C000020055600007B
:105740004055002048080020C46A01005D57000051
:1057500020570020D0080020D06A01002DE9F04F2A
:10576000B04CB14FDFF8D492DFF8D482DFF8D4A286
:1057700085B0AC484FF0FF324FF0FF3302210FF0FD
:10578000C7FA002840F0A080E36803F4F833B3F5CB
:10579000805F00F09580236A03F4F833B3F5804FFF
:1057A00000F0E0800025E268236AA0496FF3103220
:1057B000D1F800B0E2606FF310339D4A2362BFF36B
:1057C0005B8F52E8003F23F0010142E800100028FF
:1057D000F7D1BFF35B8FDB0744BF0023C7E900337A
:1057E000BBF1000F40F3C580D9F80030D8F8002095
:1057F0003E68ABEB030313448E4A1360002E00F0A7
:10580000E4807279002D68D1042A39D8022A00F286
:10581000908040F23D1150460192FCF775FF019ACD
:105820000396002A40F08B805046CF21FCF76CFF96
:1058300003980023036003A802F0ECFAD9F80030C3
:10584000D8F800103A68ABEB03030B4479490B60BE
:105850002AB15279D11E01290DD9052A09D02DB1BD
:10586000AB892846002B35D0FEF72AF80EF0BCFE97
:105870007FE7002BF3D000216F480FF0A5FAEEE789
:10588000052A16D1002BF1D07A6833683B60964226
:1058900000F0B9804FF0FF324FF0FF330320039642
:1058A000FDF7BCFF01460546039801F0AFF80398E9
:1058B000BFE740F23D115046FCF726FF0396B3E7E1
:1058C000236900259D606EE740F275115046FCF794
:1058D0001BFF59E70DF046F8C8E7D11E012963D92F
:1058E000052A75D001336A794BD03E68042A62D804
:1058F000022A00F29080531E012B00F2868003954D
:10590000022A00F0AD804FF0FF324FF0FF3301204C
:10591000FDF784FF05460398002D00F09C80294682
:1059200001F0CAF8039A0023136003A802F072FA88
:1059300095E7796833683B608E4255D00396022A1A
:105940004AD04FF0FF324FF0FF330120FDF766FFE2
:1059500005460398002D3FF46CAF294601F0ACF8E2
:10596000039866E7606A002200230EF025FB0546D7
:1059700019E7304A4FF0FF331360002D3FF476AF44
:105980006A790395042A31D9052A31D14FF0FF32C3
:105990004FF0FF330320FDF741FF01460546039812
:1059A00001F034F8039ABEE7234800210FF00CFA07
:1059B000204B1B6896E7052A27D1002E44D11D4BAA
:1059C0001B68002B40D00395E0E7002D8AD14DE7FE
:1059D000002BE9D16A7989E7002200230121002008
:1059E0000FF0BBFF0546B4E77B60A7E7002A87D12D
:1059F0005046CF21FCF788FE039B00221A6003A8C3
:105A000002F008FA32E77B6044E7F4215046FCF7E5
:105A10007BFE0395ECE7074A01231360A6B90395C3
:105A200071E700BF14000020280E0020E80E0020BF
:105A3000EC0E0020240E00203C000020E40E00208C
:105A4000C00E0020D86A01007B6800222A607BB16A
:105A50001D607D600AE7056003A802F0DBF905E739
:105A600000220023012100200FF077FF054652E7B6
:105A7000C7E90055FAE600BF38B5074B05460121D6
:105A800018880FF08BFF0121044608300FF0DBFF70
:105A9000034620461D7038BDAC4C002070B500F1A7
:105AA00008040E462046022115460FF0CCFF6B1C61
:105AB0003E2202704370012120460FF0C4FF0670A1
:105AC00029462046BDE870400FF0BDBF70B502F119
:105AD000080504460E46284602210FF0B4FF03468F
